{
  "_format": "hh-sol-artifact-1",
  "contractName": "BasicNft",
  "sourceName": "contracts/BasicNft.sol",
  "abi": [
    {
      "inputs": [
        {
          "internalType": "string",
          "name": "baseTokenUri_",
          "type": "string"
        },
        {
          "internalType": "uint256",
          "name": "maxSupply_",
          "type": "uint256"
        },
        {
          "internalType": "uint256",
          "name": "mintPriceWei_",
          "type": "uint256"
        }
      ],
      "stateMutability": "nonpayable",
      "type": "constructor"
    },
    {
      "inputs": [
        {
          "internalType": "address",
          "name": "sender",
          "type": "address"
        },
        {
          "internalType": "uint256",
          "name": "tokenId",
          "type": "uint256"
        },
        {
          "internalType": "address",
          "name": "owner",
          "type": "address"
        }
      ],
      "name": "ERC721IncorrectOwner",
      "type": "error"
    },
    {
      "inputs": [
        {
          "internalType": "address",
          "name": "operator",
          "type": "address"
        },
        {
          "internalType": "uint256",
          "name": "tokenId",
          "type": "uint256"
        }
      ],
      "name": "ERC721InsufficientApproval",
      "type": "error"
    },
    {
      "inputs": [
        {
          "internalType": "address",
          "name": "approver",
          "type": "address"
        }
      ],
      "name": "ERC721InvalidApprover",
      "type": "error"
    },
    {
      "inputs": [
        {
          "internalType": "address",
          "name": "operator",
          "type": "address"
        }
      ],
      "name": "ERC721InvalidOperator",
      "type": "error"
    },
    {
      "inputs": [
        {
          "internalType": "address",
          "name": "owner",
          "type": "address"
        }
      ],
      "name": "ERC721InvalidOwner",
      "type": "error"
    },
    {
      "inputs": [
        {
          "internalType": "address",
          "name": "receiver",
          "type": "address"
        }
      ],
      "name": "ERC721InvalidReceiver",
      "type": "error"
    },
    {
      "inputs": [
        {
          "internalType": "address",
          "name": "sender",
          "type": "address"
        }
      ],
      "name": "ERC721InvalidSender",
      "type": "error"
    },
    {
      "inputs": [
        {
          "internalType": "uint256",
          "name": "tokenId",
          "type": "uint256"
        }
      ],
      "name": "ERC721NonexistentToken",
      "type": "error"
    },
    {
      "inputs": [],
      "name": "SoldOut",
      "type": "error"
    },
    {
      "inputs": [],
      "name": "WrongPrice",
      "type": "error"
    },
    {
      "anonymous": false,
      "inputs": [
        {
          "indexed": true,
          "internalType": "address",
          "name": "owner",
          "type": "address"
        },
        {
          "indexed": true,
          "internalType": "address",
          "name": "approved",
          "type": "address"
        },
        {
          "indexed": true,
          "internalType": "uint256",
          "name": "tokenId",
          "type": "uint256"
        }
      ],
      "name": "Approval",
      "type": "event"
    },
    {
      "anonymous": false,
      "inputs": [
        {
          "indexed": true,
          "internalType": "address",
          "name": "owner",
          "type": "address"
        },
        {
          "indexed": true,
          "internalType": "address",
          "name": "operator",
          "type": "address"
        },
        {
          "indexed": false,
          "internalType": "bool",
          "name": "approved",
          "type": "bool"
        }
      ],
      "name": "ApprovalForAll",
      "type": "event"
    },
    {
      "anonymous": false,
      "inputs": [
        {
          "indexed": false,
          "internalType": "uint256",
          "name": "_fromTokenId",
          "type": "uint256"
        },
        {
          "indexed": false,
          "internalType": "uint256",
          "name": "_toTokenId",
          "type": "uint256"
        }
      ],
      "name": "BatchMetadataUpdate",
      "type": "event"
    },
    {
      "anonymous": false,
      "inputs": [
        {
          "indexed": false,
          "internalType": "uint256",
          "name": "_tokenId",
          "type": "uint256"
        }
      ],
      "name": "MetadataUpdate",
      "type": "event"
    },
    {
      "anonymous": false,
      "inputs": [
        {
          "indexed": true,
          "internalType": "address",
          "name": "from",
          "type": "address"
        },
        {
          "indexed": true,
          "internalType": "address",
          "name": "to",
          "type": "address"
        },
        {
          "indexed": true,
          "internalType": "uint256",
          "name": "tokenId",
          "type": "uint256"
        }
      ],
      "name": "Transfer",
      "type": "event"
    },
    {
      "inputs": [
        {
          "internalType": "address",
          "name": "to",
          "type": "address"
        },
        {
          "internalType": "uint256",
          "name": "tokenId",
          "type": "uint256"
        }
      ],
      "name": "approve",
      "outputs": [],
      "stateMutability": "nonpayable",
      "type": "function"
    },
    {
      "inputs": [
        {
          "internalType": "address",
          "name": "owner",
          "type": "address"
        }
      ],
      "name": "balanceOf",
      "outputs": [
        {
          "internalType": "uint256",
          "name": "",
          "type": "uint256"
        }
      ],
      "stateMutability": "view",
      "type": "function"
    },
    {
      "inputs": [
        {
          "internalType": "uint256",
          "name": "tokenId",
          "type": "uint256"
        }
      ],
      "name": "getApproved",
      "outputs": [
        {
          "internalType": "address",
          "name": "",
          "type": "address"
        }
      ],
      "stateMutability": "view",
      "type": "function"
    },
    {
      "inputs": [],
      "name": "getMaxSupply",
      "outputs": [
        {
          "internalType": "uint256",
          "name": "",
          "type": "uint256"
        }
      ],
      "stateMutability": "view",
      "type": "function"
    },
    {
      "inputs": [],
      "name": "getMintPrice",
      "outputs": [
        {
          "internalType": "uint256",
          "name": "",
          "type": "uint256"
        }
      ],
      "stateMutability": "view",
      "type": "function"
    },
    {
      "inputs": [
        {
          "internalType": "address",
          "name": "owner",
          "type": "address"
        },
        {
          "internalType": "address",
          "name": "operator",
          "type": "address"
        }
      ],
      "name": "isApprovedForAll",
      "outputs": [
        {
          "internalType": "bool",
          "name": "",
          "type": "bool"
        }
      ],
      "stateMutability": "view",
      "type": "function"
    },
    {
      "inputs": [],
      "name": "maxSupply",
      "outputs": [
        {
          "internalType": "uint256",
          "name": "",
          "type": "uint256"
        }
      ],
      "stateMutability": "view",
      "type": "function"
    },
    {
      "inputs": [],
      "name": "mint",
      "outputs": [],
      "stateMutability": "payable",
      "type": "function"
    },
    {
      "inputs": [],
      "name": "mintPrice",
      "outputs": [
        {
          "internalType": "uint256",
          "name": "",
          "type": "uint256"
        }
      ],
      "stateMutability": "view",
      "type": "function"
    },
    {
      "inputs": [],
      "name": "name",
      "outputs": [
        {
          "internalType": "string",
          "name": "",
          "type": "string"
        }
      ],
      "stateMutability": "view",
      "type": "function"
    },
    {
      "inputs": [],
      "name": "owner",
      "outputs": [
        {
          "internalType": "address",
          "name": "",
          "type": "address"
        }
      ],
      "stateMutability": "view",
      "type": "function"
    },
    {
      "inputs": [
        {
          "internalType": "uint256",
          "name": "tokenId",
          "type": "uint256"
        }
      ],
      "name": "ownerOf",
      "outputs": [
        {
          "internalType": "address",
          "name": "",
          "type": "address"
        }
      ],
      "stateMutability": "view",
      "type": "function"
    },
    {
      "inputs": [
        {
          "internalType": "address",
          "name": "from",
          "type": "address"
        },
        {
          "internalType": "address",
          "name": "to",
          "type": "address"
        },
        {
          "internalType": "uint256",
          "name": "tokenId",
          "type": "uint256"
        }
      ],
      "name": "safeTransferFrom",
      "outputs": [],
      "stateMutability": "nonpayable",
      "type": "function"
    },
    {
      "inputs": [
        {
          "internalType": "address",
          "name": "from",
          "type": "address"
        },
        {
          "internalType": "address",
          "name": "to",
          "type": "address"
        },
        {
          "internalType": "uint256",
          "name": "tokenId",
          "type": "uint256"
        },
        {
          "internalType": "bytes",
          "name": "data",
          "type": "bytes"
        }
      ],
      "name": "safeTransferFrom",
      "outputs": [],
      "stateMutability": "nonpayable",
      "type": "function"
    },
    {
      "inputs": [
        {
          "internalType": "address",
          "name": "operator",
          "type": "address"
        },
        {
          "internalType": "bool",
          "name": "approved",
          "type": "bool"
        }
      ],
      "name": "setApprovalForAll",
      "outputs": [],
      "stateMutability": "nonpayable",
      "type": "function"
    },
    {
      "inputs": [
        {
          "internalType": "bytes4",
          "name": "interfaceId",
          "type": "bytes4"
        }
      ],
      "name": "supportsInterface",
      "outputs": [
        {
          "internalType": "bool",
          "name": "",
          "type": "bool"
        }
      ],
      "stateMutability": "view",
      "type": "function"
    },
    {
      "inputs": [],
      "name": "symbol",
      "outputs": [
        {
          "internalType": "string",
          "name": "",
          "type": "string"
        }
      ],
      "stateMutability": "view",
      "type": "function"
    },
    {
      "inputs": [
        {
          "internalType": "uint256",
          "name": "tokenId",
          "type": "uint256"
        }
      ],
      "name": "tokenURI",
      "outputs": [
        {
          "internalType": "string",
          "name": "",
          "type": "string"
        }
      ],
      "stateMutability": "view",
      "type": "function"
    },
    {
      "inputs": [],
      "name": "totalSupply",
      "outputs": [
        {
          "internalType": "uint256",
          "name": "",
          "type": "uint256"
        }
      ],
      "stateMutability": "view",
      "type": "function"
    },
    {
      "inputs": [
        {
          "internalType": "address",
          "name": "from",
          "type": "address"
        },
        {
          "internalType": "address",
          "name": "to",
          "type": "address"
        },
        {
          "internalType": "uint256",
          "name": "tokenId",
          "type": "uint256"
        }
      ],
      "name": "transferFrom",
      "outputs": [],
      "stateMutability": "nonpayable",
      "type": "function"
    },
    {
      "inputs": [],
      "name": "withdraw",
      "outputs": [],
      "stateMutability": "nonpayable",
      "type": "function"
    }
  ],
  "bytecode": "0x60c06040523480156200001157600080fd5b5060405162002fd238038062002fd283398181016040528101906200003791906200030b565b6040518060400160405280600d81526020017f4d656d626572736869704e4654000000000000000000000000000000000000008152506040518060400160405280600481526020017f4d4e4654000000000000000000000000000000000000000000000000000000008152508160009081620000b49190620005c7565b508060019081620000c69190620005c7565b5050508260089081620000da9190620005c7565b5081608081815250508060a08181525050600060078190555033600960006101000a81548173ffffffffffffffffffffffffffffffffffffffff021916908373ffffffffffffffffffffffffffffffffffffffff160217905550505050620006ae565b6000604051905090565b600080fd5b600080fd5b600080fd5b600080fd5b6000601f19601f8301169050919050565b7f4e487b7100000000000000000000000000000000000000000000000000000000600052604160045260246000fd5b620001a6826200015b565b810181811067ffffffffffffffff82111715620001c857620001c76200016c565b5b80604052505050565b6000620001dd6200013d565b9050620001eb82826200019b565b919050565b600067ffffffffffffffff8211156200020e576200020d6200016c565b5b62000219826200015b565b9050602081019050919050565b60005b838110156200024657808201518184015260208101905062000229565b60008484015250505050565b6000620002696200026384620001f0565b620001d1565b90508281526020810184848401111562000288576200028762000156565b5b6200029584828562000226565b509392505050565b600082601f830112620002b557620002b462000151565b5b8151620002c784826020860162000252565b91505092915050565b6000819050919050565b620002e581620002d0565b8114620002f157600080fd5b50565b6000815190506200030581620002da565b92915050565b60008060006060848603121562000327576200032662000147565b5b600084015167ffffffffffffffff8111156200034857620003476200014c565b5b62000356868287016200029d565b93505060206200036986828701620002f4565b92505060406200037c86828701620002f4565b9150509250925092565b600081519050919050565b7f4e487b7100000000000000000000000000000000000000000000000000000000600052602260045260246000fd5b60006002820490506001821680620003d957607f821691505b602082108103620003ef57620003ee62000391565b5b50919050565b60008190508160005260206000209050919050565b60006020601f8301049050919050565b600082821b905092915050565b600060088302620004597fffffffffffffffffffffffffffffffffffffffffffffffffffffffffffffffff826200041a565b6200046586836200041a565b95508019841693508086168417925050509392505050565b6000819050919050565b6000620004a8620004a26200049c84620002d0565b6200047d565b620002d0565b9050919050565b6000819050919050565b620004c48362000487565b620004dc620004d382620004af565b84845462000427565b825550505050565b600090565b620004f3620004e4565b62000500818484620004b9565b505050565b5b8181101562000528576200051c600082620004e9565b60018101905062000506565b5050565b601f82111562000577576200054181620003f5565b6200054c846200040a565b810160208510156200055c578190505b620005746200056b856200040a565b83018262000505565b50505b505050565b600082821c905092915050565b60006200059c600019846008026200057c565b1980831691505092915050565b6000620005b7838362000589565b9150826002028217905092915050565b620005d28262000386565b67ffffffffffffffff811115620005ee57620005ed6200016c565b5b620005fa8254620003c0565b620006078282856200052c565b600060209050601f8311600181146200063f57600084156200062a578287015190505b620006368582620005a9565b865550620006a6565b601f1984166200064f86620003f5565b60005b82811015620006795784890151825560018201915060208501945060208101905062000652565b8683101562000699578489015162000695601f89168262000589565b8355505b6001600288020188555050505b505050505050565b60805160a0516128e2620006f0600039600081816106650152818161097b0152610b2901526000818161060a015281816109430152610c8701526128e26000f3fe60806040526004361061012a5760003560e01c80636352211e116100ab578063a22cb4651161006f578063a22cb465146103c1578063a7f93ebd146103ea578063b88d4fde14610415578063c87b56dd1461043e578063d5abeb011461047b578063e985e9c5146104a65761012a565b80636352211e146102c65780636817c76c1461030357806370a082311461032e5780638da5cb5b1461036b57806395d89b41146103965761012a565b806318160ddd116100f257806318160ddd1461020757806323b872dd146102325780633ccfd60b1461025b57806342842e0e146102725780634c0f38c21461029b5761012a565b806301ffc9a71461012f57806306fdde031461016c578063081812fc14610197578063095ea7b3146101d45780631249c58b146101fd575b600080fd5b34801561013b57600080fd5b5061015660048036038101906101519190611ccd565b6104e3565b6040516101639190611d15565b60405180910390f35b34801561017857600080fd5b50610181610544565b60405161018e9190611dc0565b60405180910390f35b3480156101a357600080fd5b506101be60048036038101906101b99190611e18565b6105d6565b6040516101cb9190611e86565b60405180910390f35b3480156101e057600080fd5b506101fb60048036038101906101f69190611ecd565b6105f2565b005b610205610608565b005b34801561021357600080fd5b5061021c610718565b6040516102299190611f1c565b60405180910390f35b34801561023e57600080fd5b5061025960048036038101906102549190611f37565b610722565b005b34801561026757600080fd5b50610270610824565b005b34801561027e57600080fd5b5061029960048036038101906102949190611f37565b61091f565b005b3480156102a757600080fd5b506102b061093f565b6040516102bd9190611f1c565b60405180910390f35b3480156102d257600080fd5b506102ed60048036038101906102e89190611e18565b610967565b6040516102fa9190611e86565b60405180910390f35b34801561030f57600080fd5b50610318610979565b6040516103259190611f1c565b60405180910390f35b34801561033a57600080fd5b5061035560048036038101906103509190611f8a565b61099d565b6040516103629190611f1c565b60405180910390f35b34801561037757600080fd5b50610380610a57565b60405161038d9190611e86565b60405180910390f35b3480156103a257600080fd5b506103ab610a7d565b6040516103b89190611dc0565b60405180910390f35b3480156103cd57600080fd5b506103e860048036038101906103e39190611fe3565b610b0f565b005b3480156103f657600080fd5b506103ff610b25565b60405161040c9190611f1c565b60405180910390f35b34801561042157600080fd5b5061043c60048036038101906104379190612158565b610b4d565b005b34801561044a57600080fd5b5061046560048036038101906104609190611e18565b610b72565b6040516104729190611dc0565b60405180910390f35b34801561048757600080fd5b50610490610c85565b60405161049d9190611f1c565b60405180910390f35b3480156104b257600080fd5b506104cd60048036038101906104c891906121db565b610ca9565b6040516104da9190611d15565b60405180910390f35b6000634906490660e01b7bffffffffffffffffffffffffffffffffffffffffffffffffffffffff1916827bffffffffffffffffffffffffffffffffffffffffffffffffffffffff1916148061053d575061053c82610d3d565b5b9050919050565b6060600080546105539061224a565b80601f016020809104026020016040519081016040528092919081815260200182805461057f9061224a565b80156105cc5780601f106105a1576101008083540402835291602001916105cc565b820191906000526020600020905b8154815290600101906020018083116105af57829003601f168201915b5050505050905090565b60006105e182610e1f565b506105eb82610ea7565b9050919050565b61060482826105ff610ee4565b610eec565b5050565b7f000000000000000000000000000000000000000000000000000000000000000060075410610663576040517f52df9fe500000000000000000000000000000000000000000000000000000000815260040160405180910390fd5b7f000000000000000000000000000000000000000000000000000000000000000034146106bc576040517ff7760f2500000000000000000000000000000000000000000000000000000000815260040160405180910390fd5b6000600760008154809291906106d1906122aa565b9190505590506106e13382610efe565b6107158160086106f084610f1c565b604051602001610701929190612412565b604051602081830303815290604052610fea565b50565b6000600754905090565b600073ffffffffffffffffffffffffffffffffffffffff168273ffffffffffffffffffffffffffffffffffffffff16036107945760006040517f64a0ae9200000000000000000000000000000000000000000000000000000000815260040161078b9190611e86565b60405180910390fd5b60006107a883836107a3610ee4565b611046565b90508373ffffffffffffffffffffffffffffffffffffffff168173ffffffffffffffffffffffffffffffffffffffff161461081e578382826040517f64283d7b00000000000000000000000000000000000000000000000000000000815260040161081593929190612441565b60405180910390fd5b50505050565b600960009054906101000a900473ffffffffffffffffffffffffffffffffffffffff1673ffffffffffffffffffffffffffffffffffffffff163373ffffffffffffffffffffffffffffffffffffffff16146108b4576040517f08c379a00000000000000000000000000000000000000000000000000000000081526004016108ab906124c4565b60405180910390fd5b600960009054906101000a900473ffffffffffffffffffffffffffffffffffffffff1673ffffffffffffffffffffffffffffffffffffffff166108fc479081150290604051600060405180830381858888f1935050505015801561091c573d6000803e3d6000fd5b50565b61093a83838360405180602001604052806000815250610b4d565b505050565b60007f0000000000000000000000000000000000000000000000000000000000000000905090565b600061097282610e1f565b9050919050565b7f000000000000000000000000000000000000000000000000000000000000000081565b60008073ffffffffffffffffffffffffffffffffffffffff168273ffffffffffffffffffffffffffffffffffffffff1603610a105760006040517f89c62b64000000000000000000000000000000000000000000000000000000008152600401610a079190611e86565b60405180910390fd5b600360008373ffffffffffffffffffffffffffffffffffffffff1673ffffffffffffffffffffffffffffffffffffffff168152602001908152602001600020549050919050565b600960009054906101000a900473ffffffffffffffffffffffffffffffffffffffff1681565b606060018054610a8c9061224a565b80601f0160208091040260200160405190810160405280929190818152602001828054610ab89061224a565b8015610b055780601f10610ada57610100808354040283529160200191610b05565b820191906000526020600020905b815481529060010190602001808311610ae857829003601f168201915b5050505050905090565b610b21610b1a610ee4565b8383611260565b5050565b60007f0000000000000000000000000000000000000000000000000000000000000000905090565b610b58848484610722565b610b6c610b63610ee4565b858585856113cf565b50505050565b6060610b7d82610e1f565b506000600660008481526020019081526020016000208054610b9e9061224a565b80601f0160208091040260200160405190810160405280929190818152602001828054610bca9061224a565b8015610c175780601f10610bec57610100808354040283529160200191610c17565b820191906000526020600020905b815481529060010190602001808311610bfa57829003601f168201915b505050505090506000610c28611580565b90506000815103610c3d578192505050610c80565b600082511115610c72578082604051602001610c5a9291906124e4565b60405160208183030381529060405292505050610c80565b610c7b84611597565b925050505b919050565b7f000000000000000000000000000000000000000000000000000000000000000081565b6000600560008473ffffffffffffffffffffffffffffffffffffffff1673ffffffffffffffffffffffffffffffffffffffff16815260200190815260200160002060008373ffffffffffffffffffffffffffffffffffffffff1673ffffffffffffffffffffffffffffffffffffffff16815260200190815260200160002060009054906101000a900460ff16905092915050565b60007f80ac58cd000000000000000000000000000000000000000000000000000000007bffffffffffffffffffffffffffffffffffffffffffffffffffffffff1916827bffffffffffffffffffffffffffffffffffffffffffffffffffffffff19161480610e0857507f5b5e139f000000000000000000000000000000000000000000000000000000007bffffffffffffffffffffffffffffffffffffffffffffffffffffffff1916827bffffffffffffffffffffffffffffffffffffffffffffffffffffffff1916145b80610e185750610e1782611600565b5b9050919050565b600080610e2b8361166a565b9050600073ffffffffffffffffffffffffffffffffffffffff168173ffffffffffffffffffffffffffffffffffffffff1603610e9e57826040517f7e273289000000000000000000000000000000000000000000000000000000008152600401610e959190611f1c565b60405180910390fd5b80915050919050565b60006004600083815260200190815260200160002060009054906101000a900473ffffffffffffffffffffffffffffffffffffffff169050919050565b600033905090565b610ef983838360016116a7565b505050565b610f1882826040518060200160405280600081525061186c565b5050565b606060006001610f2b84611890565b01905060008167ffffffffffffffff811115610f4a57610f4961202d565b5b6040519080825280601f01601f191660200182016040528015610f7c5781602001600182028036833780820191505090505b509050600082602083010190505b600115610fdf578080600190039150507f3031323334353637383961626364656600000000000000000000000000000000600a86061a8153600a8581610fd357610fd2612508565b5b04945060008503610f8a575b819350505050919050565b8060066000848152602001908152602001600020908161100a91906126ce565b507ff8e1a15aba9398e019f0b49df1a4fde98ee17ae345cb5f6b5e2c27f5033e8ce78260405161103a9190611f1c565b60405180910390a15050565b6000806110528461166a565b9050600073ffffffffffffffffffffffffffffffffffffffff168373ffffffffffffffffffffffffffffffffffffffff1614611094576110938184866119e3565b5b600073ffffffffffffffffffffffffffffffffffffffff168173ffffffffffffffffffffffffffffffffffffffff1614611125576110d66000856000806116a7565b6001600360008373ffffffffffffffffffffffffffffffffffffffff1673ffffffffffffffffffffffffffffffffffffffff168152602001908152602001600020600082825403925050819055505b600073ffffffffffffffffffffffffffffffffffffffff168573ffffffffffffffffffffffffffffffffffffffff16146111a8576001600360008773ffffffffffffffffffffffffffffffffffffffff1673ffffffffffffffffffffffffffffffffffffffff168152602001908152602001600020600082825401925050819055505b846002600086815260200190815260200160002060006101000a81548173ffffffffffffffffffffffffffffffffffffffff021916908373ffffffffffffffffffffffffffffffffffffffff160217905550838573ffffffffffffffffffffffffffffffffffffffff168273ffffffffffffffffffffffffffffffffffffffff167fddf252ad1be2c89b69c2b068fc378daa952ba7f163c4a11628f55a4df523b3ef60405160405180910390a4809150509392505050565b600073ffffffffffffffffffffffffffffffffffffffff168273ffffffffffffffffffffffffffffffffffffffff16036112d157816040517f5b08ba180000000000000000000000000000000000000000000000000000000081526004016112c89190611e86565b60405180910390fd5b80600560008573ffffffffffffffffffffffffffffffffffffffff1673ffffffffffffffffffffffffffffffffffffffff16815260200190815260200160002060008473ffffffffffffffffffffffffffffffffffffffff1673ffffffffffffffffffffffffffffffffffffffff16815260200190815260200160002060006101000a81548160ff0219169083151502179055508173ffffffffffffffffffffffffffffffffffffffff168373ffffffffffffffffffffffffffffffffffffffff167f17307eab39ab6107e8899845ad3d59bd9653f200f220920489ca2b5937696c31836040516113c29190611d15565b60405180910390a3505050565b60008373ffffffffffffffffffffffffffffffffffffffff163b1115611579578273ffffffffffffffffffffffffffffffffffffffff1663150b7a02868685856040518563ffffffff1660e01b815260040161142e94939291906127f5565b6020604051808303816000875af192505050801561146a57506040513d601f19601f820116820180604052508101906114679190612856565b60015b6114ee573d806000811461149a576040519150601f19603f3d011682016040523d82523d6000602084013e61149f565b606091505b5060008151036114e657836040517f64a0ae920000000000000000000000000000000000000000000000000000000081526004016114dd9190611e86565b60405180910390fd5b805160208201fd5b63150b7a0260e01b7bffffffffffffffffffffffffffffffffffffffffffffffffffffffff1916817bffffffffffffffffffffffffffffffffffffffffffffffffffffffff19161461157757836040517f64a0ae9200000000000000000000000000000000000000000000000000000000815260040161156e9190611e86565b60405180910390fd5b505b5050505050565b606060405180602001604052806000815250905090565b60606115a282610e1f565b5060006115ad611580565b905060008151116115cd57604051806020016040528060008152506115f8565b806115d784610f1c565b6040516020016115e89291906124e4565b6040516020818303038152906040525b915050919050565b60007f01ffc9a7000000000000000000000000000000000000000000000000000000007bffffffffffffffffffffffffffffffffffffffffffffffffffffffff1916827bffffffffffffffffffffffffffffffffffffffffffffffffffffffff1916149050919050565b60006002600083815260200190815260200160002060009054906101000a900473ffffffffffffffffffffffffffffffffffffffff169050919050565b80806116e05750600073ffffffffffffffffffffffffffffffffffffffff168273ffffffffffffffffffffffffffffffffffffffff1614155b156118145760006116f084610e1f565b9050600073ffffffffffffffffffffffffffffffffffffffff168373ffffffffffffffffffffffffffffffffffffffff161415801561175b57508273ffffffffffffffffffffffffffffffffffffffff168173ffffffffffffffffffffffffffffffffffffffff1614155b801561176e575061176c8184610ca9565b155b156117b057826040517fa9fbf51f0000000000000000000000000000000000000000000000000000000081526004016117a79190611e86565b60405180910390fd5b811561181257838573ffffffffffffffffffffffffffffffffffffffff168273ffffffffffffffffffffffffffffffffffffffff167f8c5be1e5ebec7d5bd14f71427d1e84f3dd0314c0f7b2291e5b200ac8c7c3b92560405160405180910390a45b505b836004600085815260200190815260200160002060006101000a81548173ffffffffffffffffffffffffffffffffffffffff021916908373ffffffffffffffffffffffffffffffffffffffff16021790555050505050565b6118768383611aa7565b61188b611881610ee4565b60008585856113cf565b505050565b600080600090507a184f03e93ff9f4daa797ed6e38ed64bf6a1f01000000000000000083106118ee577a184f03e93ff9f4daa797ed6e38ed64bf6a1f01000000000000000083816118e4576118e3612508565b5b0492506040810190505b6d04ee2d6d415b85acef8100000000831061192b576d04ee2d6d415b85acef8100000000838161192157611920612508565b5b0492506020810190505b662386f26fc10000831061195a57662386f26fc1000083816119505761194f612508565b5b0492506010810190505b6305f5e1008310611983576305f5e100838161197957611978612508565b5b0492506008810190505b61271083106119a857612710838161199e5761199d612508565b5b0492506004810190505b606483106119cb57606483816119c1576119c0612508565b5b0492506002810190505b600a83106119da576001810190505b80915050919050565b6119ee838383611ba0565b611aa257600073ffffffffffffffffffffffffffffffffffffffff168373ffffffffffffffffffffffffffffffffffffffff1603611a6357806040517f7e273289000000000000000000000000000000000000000000000000000000008152600401611a5a9190611f1c565b60405180910390fd5b81816040517f177e802f000000000000000000000000000000000000000000000000000000008152600401611a99929190612883565b60405180910390fd5b505050565b600073ffffffffffffffffffffffffffffffffffffffff168273ffffffffffffffffffffffffffffffffffffffff1603611b195760006040517f64a0ae92000000000000000000000000000000000000000000000000000000008152600401611b109190611e86565b60405180910390fd5b6000611b2783836000611046565b9050600073ffffffffffffffffffffffffffffffffffffffff168173ffffffffffffffffffffffffffffffffffffffff1614611b9b5760006040517f73c6ac6e000000000000000000000000000000000000000000000000000000008152600401611b929190611e86565b60405180910390fd5b505050565b60008073ffffffffffffffffffffffffffffffffffffffff168373ffffffffffffffffffffffffffffffffffffffff1614158015611c5857508273ffffffffffffffffffffffffffffffffffffffff168473ffffffffffffffffffffffffffffffffffffffff161480611c195750611c188484610ca9565b5b80611c5757508273ffffffffffffffffffffffffffffffffffffffff16611c3f83610ea7565b73ffffffffffffffffffffffffffffffffffffffff16145b5b90509392505050565b6000604051905090565b600080fd5b600080fd5b60007fffffffff0000000000000000000000000000000000000000000000000000000082169050919050565b611caa81611c75565b8114611cb557600080fd5b50565b600081359050611cc781611ca1565b92915050565b600060208284031215611ce357611ce2611c6b565b5b6000611cf184828501611cb8565b91505092915050565b60008115159050919050565b611d0f81611cfa565b82525050565b6000602082019050611d2a6000830184611d06565b92915050565b600081519050919050565b600082825260208201905092915050565b60005b83811015611d6a578082015181840152602081019050611d4f565b60008484015250505050565b6000601f19601f8301169050919050565b6000611d9282611d30565b611d9c8185611d3b565b9350611dac818560208601611d4c565b611db581611d76565b840191505092915050565b60006020820190508181036000830152611dda8184611d87565b905092915050565b6000819050919050565b611df581611de2565b8114611e0057600080fd5b50565b600081359050611e1281611dec565b92915050565b600060208284031215611e2e57611e2d611c6b565b5b6000611e3c84828501611e03565b91505092915050565b600073ffffffffffffffffffffffffffffffffffffffff82169050919050565b6000611e7082611e45565b9050919050565b611e8081611e65565b82525050565b6000602082019050611e9b6000830184611e77565b92915050565b611eaa81611e65565b8114611eb557600080fd5b50565b600081359050611ec781611ea1565b92915050565b60008060408385031215611ee457611ee3611c6b565b5b6000611ef285828601611eb8565b9250506020611f0385828601611e03565b9150509250929050565b611f1681611de2565b82525050565b6000602082019050611f316000830184611f0d565b92915050565b600080600060608486031215611f5057611f4f611c6b565b5b6000611f5e86828701611eb8565b9350506020611f6f86828701611eb8565b9250506040611f8086828701611e03565b9150509250925092565b600060208284031215611fa057611f9f611c6b565b5b6000611fae84828501611eb8565b91505092915050565b611fc081611cfa565b8114611fcb57600080fd5b50565b600081359050611fdd81611fb7565b92915050565b60008060408385031215611ffa57611ff9611c6b565b5b600061200885828601611eb8565b925050602061201985828601611fce565b9150509250929050565b600080fd5b600080fd5b7f4e487b7100000000000000000000000000000000000000000000000000000000600052604160045260246000fd5b61206582611d76565b810181811067ffffffffffffffff821117156120845761208361202d565b5b80604052505050565b6000612097611c61565b90506120a3828261205c565b919050565b600067ffffffffffffffff8211156120c3576120c261202d565b5b6120cc82611d76565b9050602081019050919050565b82818337600083830152505050565b60006120fb6120f6846120a8565b61208d565b90508281526020810184848401111561211757612116612028565b5b6121228482856120d9565b509392505050565b600082601f83011261213f5761213e612023565b5b813561214f8482602086016120e8565b91505092915050565b6000806000806080858703121561217257612171611c6b565b5b600061218087828801611eb8565b945050602061219187828801611eb8565b93505060406121a287828801611e03565b925050606085013567ffffffffffffffff8111156121c3576121c2611c70565b5b6121cf8782880161212a565b91505092959194509250565b600080604083850312156121f2576121f1611c6b565b5b600061220085828601611eb8565b925050602061221185828601611eb8565b9150509250929050565b7f4e487b7100000000000000000000000000000000000000000000000000000000600052602260045260246000fd5b6000600282049050600182168061226257607f821691505b6020821081036122755761227461221b565b5b50919050565b7f4e487b7100000000000000000000000000000000000000000000000000000000600052601160045260246000fd5b60006122b582611de2565b91507fffffffffffffffffffffffffffffffffffffffffffffffffffffffffffffffff82036122e7576122e661227b565b5b600182019050919050565b600081905092915050565b60008190508160005260206000209050919050565b6000815461231f8161224a565b61232981866122f2565b9450600182166000811461234457600181146123595761238c565b60ff198316865281151582028601935061238c565b612362856122fd565b60005b8381101561238457815481890152600182019150602081019050612365565b838801955050505b50505092915050565b60006123a082611d30565b6123aa81856122f2565b93506123ba818560208601611d4c565b80840191505092915050565b7f2e6a736f6e000000000000000000000000000000000000000000000000000000600082015250565b60006123fc6005836122f2565b9150612407826123c6565b600582019050919050565b600061241e8285612312565b915061242a8284612395565b9150612435826123ef565b91508190509392505050565b60006060820190506124566000830186611e77565b6124636020830185611f0d565b6124706040830184611e77565b949350505050565b7f4e6f74206f776e65720000000000000000000000000000000000000000000000600082015250565b60006124ae600983611d3b565b91506124b982612478565b602082019050919050565b600060208201905081810360008301526124dd816124a1565b9050919050565b60006124f08285612395565b91506124fc8284612395565b91508190509392505050565b7f4e487b7100000000000000000000000000000000000000000000000000000000600052601260045260246000fd5b60006020601f8301049050919050565b600082821b905092915050565b6000600883026125847fffffffffffffffffffffffffffffffffffffffffffffffffffffffffffffffff82612547565b61258e8683612547565b95508019841693508086168417925050509392505050565b6000819050919050565b60006125cb6125c66125c184611de2565b6125a6565b611de2565b9050919050565b6000819050919050565b6125e5836125b0565b6125f96125f1826125d2565b848454612554565b825550505050565b600090565b61260e612601565b6126198184846125dc565b505050565b5b8181101561263d57612632600082612606565b60018101905061261f565b5050565b601f82111561268257612653816122fd565b61265c84612537565b8101602085101561266b578190505b61267f61267785612537565b83018261261e565b50505b505050565b600082821c905092915050565b60006126a560001984600802612687565b1980831691505092915050565b60006126be8383612694565b9150826002028217905092915050565b6126d782611d30565b67ffffffffffffffff8111156126f0576126ef61202d565b5b6126fa825461224a565b612705828285612641565b600060209050601f8311600181146127385760008415612726578287015190505b61273085826126b2565b865550612798565b601f198416612746866122fd565b60005b8281101561276e57848901518255600182019150602085019450602081019050612749565b8683101561278b5784890151612787601f891682612694565b8355505b6001600288020188555050505b505050505050565b600081519050919050565b600082825260208201905092915050565b60006127c7826127a0565b6127d181856127ab565b93506127e1818560208601611d4c565b6127ea81611d76565b840191505092915050565b600060808201905061280a6000830187611e77565b6128176020830186611e77565b6128246040830185611f0d565b818103606083015261283681846127bc565b905095945050505050565b60008151905061285081611ca1565b92915050565b60006020828403121561286c5761286b611c6b565b5b600061287a84828501612841565b91505092915050565b60006040820190506128986000830185611e77565b6128a56020830184611f0d565b939250505056fea26469706673582212209bdc89ef18829d78ab0e3585a30d0bf5e74bc07e241cebe1a9c85fd01111357464736f6c63430008140033",
  "linkReferences": {},
  "deployedLinkReferences": {}
}